:020000000628D0
:04000C0083128501D5
:100010000730990083169F0114308500FF3081005E
:10002000FF23900083128516F0303A20F0303A20FA
:100030008B010B16630000008B0185128B01831668
:10004000161683128B1563000000051E1E288B01F7
:1000500008303A20851628303A201828A000402081
:10006000A003031D2F280800A1004820A103031DA1
:1000700035280800A2005020A203031D3B280800D9
:100080001730A300A303031D42280000000008004E
:10009000F830A400A403031D4A2800000000080053
:0E00A000FA30A5004820A503031D52280800D1
:0207FE00503475
:02400E00A43FCD
:00000001FF
